:020000040800F2
:1000000028200020690100089B06000897060008C8
:1000100099060008F9010008790B000800000000AB
:10002000000000000000000000000000D5090008EA
:1000300039020008000000007F010008BD0A000826
:100040008301000883010008830100088301000880
:100050008301000883010008830100088301000870
:100060008301000883010008830100088301000860
:100070008301000883010008830100088301000850
:100080008301000883010008830100088301000840
:100090008301000883010008830100088301000830
:1000A0008301000883010008830100088301000820
:1000B0008301000883010008830100088301000810
:1000C0008301000883010008830100088301000800
:1000D00083010008830100088301000883010008F0
:1000E00083010008830100088301000883010008E0
:1000F00083010008830100088301000883010008D0
:1001000083010008830100088301000883010008BF
:1001100083010008830100088301000883010008AF
:10012000830100088301000883010008830100089F
:10013000830100088301000883010008830100088F
:100140008301000883010008DFF810D000F042F8B6
:1001500000480047B90E0008AFF3008028200020B7
:1001600080F308887047000006488047064800472B
:10017000FEE7FEE7FEE7FEE7FEE7FEE7FEE7FEE757
:10018000FEE7FEE7C10A00084901000840EA010352
:100190009B0703D009E008C9121F08C0042AFAD23D
:1001A00003E011F8013B00F8013B521EF9D2704701
:1001B000D2B201E000F8012B491EFBD270470022A9
:1001C000F6E710B513460A4604461946FFF7F0FF56
:1001D000204610BD064C074D06E0E06840F00103E4
:1001E00094E8070098471034AC42F6D3FFF7B0FF0D
:1001F0001C1500083C150008FEE700000C480168CB
:1002000021F000710160016841F00071016009484E
:10021000016821F4C0610160016841F480610160FE
:1002200001698907FCD401698907FCD57047000082
:100230002018004000700040704700000249CA6862
:100240000243CA60704700000020024018B50E4902
:10025000002000900A68920714D40A6842F0010254
:100260000A604FF4A0640A68009BC2F340025B1C62
:1002700000930AB9A342F6D10968C1F340010029ED
:1002800000D1012018BD00000010024070B50546E5
:100290007C20FFF7D3FF4FF43026304600F06EF895
:1002A000062811D1094C206940F0020020616561E7
:1002B000206940F040002061304600F05FF821697D
:1002C00043F6FD721140216170BD00000020024024
:1002D0000D490620CA68D20701D001207047CA68BC
:1002E000520701D503207047CA68120701D50420C0
:1002F0007047CA68D20601D505207047C96849060B
:10030000FBD5072070470000002002400248016929
:1003100041F080010161704700200240F8B50546B8
:10032000002000900E46A80701D00920F8BD7C20CF
:10033000FFF784FF4FF40057384600F01FF80628F7
:10034000F4D1074C206940F0010020612E6038464E
:1003500000F014F8216943F6FE7211402161F8BDE6
:100360000020024003480249416003494160704750
:100370002301674500200240AB89EFCD00B503465D
:10038000FFF7A6FF03E000BFFFF7A2FF5B1E0128F7
:1003900003D0002B00D10A2000BD002BF4D1FAE7D6
:1003A0002DE9FF47C17890F8029001F00308C1F3EE
:1003B00083078E09047841780120884085B2684619
:1003C00000F05AF9ADF800508DF80370CDF80890A0
:1003D0008DF80480412C0AD0422C0CD0432C19D02B
:1003E000442C1BD04FF0FF3004B0BDE8F087012152
:1003F0000E4C042002E00E4C0121082000F026FAE9
:100400006946204600F01AF82946204656B100F009
:1004100040F909E00121074C1020EFE70121064CCB
:100420002020EBE700F033F90020DDE70008014071
:10043000000C014000100140001401402DE9F04F74
:10044000DFF83092002309F1040A0F2703250AF18F
:10045000040B87B001260BF1040E03E106FA03F248
:1004600014427DD0D1F808C05C00BCF1020F08D066
:10047000BCF1120F05D0BCF1000F02D0BCF1030F8C
:100480003FD15FEA037C1ED5D0F824C0CDF800C070
:100490004FEA437C4FEADC6C07FA0CF8CDF804C055
:1004A000DDF800C02CEA080CCDF800C0D1F80C80B3
:1004B000DDF804C008FA0CF8DDF800C048EA0C08C2
:1004C000C0F824801DE0D0F820C0CDF800C04FEA6D
:1004D000437C4FEADC6C07FA0CF8CDF804C0DDF879
:1004E00000C02CEA080CCDF800C0D1F80C80DDF873
:1004F00004C008FA0CF8DDF800C048EA0C08C0F89F
:100500002080D0F800C0CDF804C091F808C00CF0ED
:100510000F08CDF8008005FA04F8DDF804C0CDF826
:100520000880CDF810802CEA080CDDF8008008FA6D
:1005300004F848EA0C08C0F80080D0F80CC0CDF8E8
:1005400004C091F804C00CF00308CDF80080DDF879
:1005500004C0DDF810802CEA080CDDF8008000E013
:100560007FE008FA04F848EA0C08C0F80C80D1F8DB
:1005700008C05FEA8C7816D0BCF1030F13D0D0F816
:100580002C8091F802C00CF0030CCDF800C0DDF80F
:1005900008C028EA0C08DDF800C00CFA04FC4CEA9C
:1005A000080CC0F82CC0D0F808C0CC782CEA020C9B
:1005B00004F001049C4044EA0C0484600C79022C91
:1005C00002D0012C04D006E0846A1443846202E065
:1005D0008469144384618C68012C05D0022C03D0FB
:1005E000112C01D0122C09D1D0F804C0C4F300148E
:1005F0002CEA020C9C4044EA0C044460D1F808C088
:100600005FEACC042DD5D9F80040C84694435FEA90
:10061000CC3C00D51443C8F80040DAF80040D4467A
:10062000D1F8088094435FEA883800D51443CCF8A9
:100630000040DBF80040DC46D1F8088094435FEAD4
:10064000C82800D51443CCF80040DEF80040F4463A
:10065000D1F8088094435FEA882800D51443CCF889
:1006600000405B1C0C8834FA03F27FF4F7AE07B04D
:10067000BDE8F08F000401404FF6FF7101800021BA
:10068000C1700F22C0E9021201718170704781624E
:10069000704781617047FEE7FEE770472DE9F04142
:1006A000D0E90141D0E903678846056800F0A6F863
:1006B000012C0AD04FF4803084420AD0B4F5403F78
:1006C00007D04FF0FF30BDE8F081012000F0CAF8FC
:1006D00008E000F041F800F067F9012802D06FF05F
:1006E0000100F0E71548016821F003010160144999
:1006F0006D1EB5FBF1F1026811430160002000F0AE
:1007000021F8384600F04CF8304600F03FF800225F
:100710004146204600F04EF8012000F0A9F83920AB
:1007200000F022F90028FAD0032000F05DF800BFA5
:1007300000F032F90C28FBD10020C4E70020024071
:100740000048E801034A516821F0F001014351607B
:1007500070470000001002400B490A6822F4803202
:100760000A600A6822F480220A60B0F5803F07D050
:10077000B0F5802F03D1086840F4A02008607047CE
:10078000086840F48030F9E700100240034A5168DD
:1007900021F4E06101435160704700000010024005
:1007A00003494A6822F4605242EAC0004860704738
:1007B0000010024070B50A4C6368256C094E25F0A4
:1007C0000305334040B1012806D00843034345EAFE
:1007D00002006360206470BD0B4310432843F8E7B8
:1007E00000100240FFFFC0F7034A516821F00301E7
:1007F0000143516070470000001002400F48416AF9
:1008000041F00401416241680D4A114041600168B4
:100810000C4A11400160016821F4802101604168A7
:10082000094A114041604FF46051C16201630021E7
:10083000416301644FF41F01816070470010024062
:1008400000C0FFF8FEFFF6FEFFFF00F7044A002994
:10085000916901D0014300E081439161704700003C
:100860000010024001490860704700000000424249
:1008700001490866704700000000424270B53449E3
:100880004A68344B1A404B6803F480344B6A1501B4
:10089000C3F3021301D4022501E06FF4F77505EBF1
:1008A00092421CB14C68A40307D402E00C6CE4072C
:1008B00001D0294C02E0294C00E0294C62430C6C29
:1008C000A40700D552084C68264D14F00C0405D03E
:1008D000042C06D0082C07D00C2C07D055F8233058
:1008E00000E01E4B036002E01B4BFBE702604B681D
:1008F0000F2404EA13131B4C403CE55C0368EB40F7
:1009000043604D68072606EA1525655D23FA05F55F
:1009100085604D6806EAD525645D23FA04F4C46059
:10092000CC6A104D04F00F04303D2C5DB3FBF4F3A2
:100930004361C96A1F2303EA111101F00F0105F198
:10094000100333F81110B2FBF1F1016170BD00002A
:100950000010024000003C0800127A000024F4005D
:1009600000093D000015000802460020530909490E
:10097000012B0BD0022B0BD0D1F8241002F01F0258
:10098000012393400B4200D0012070470968F5E72E
:10099000096AF3E7001002400248406800F00C00CA
:1009A000704700000010024018B500204FF40054BA
:1009B00000903120FFF7D8FF0099491C0091A14217
:1009C00001D00028F5D03120FFF7CEFF002800D05D
:1009D000012018BD70470000294A00B511680020A9
:1009E00041F4803111604FF400531168401CC1F391
:1009F000404109B99842F8D11068C0F34040C8B3EB
:100A0000FFF7FCFB1F48016821F00301016001684A
:100A100041F00101016050685060506840F400509E
:100A20005060506840F4A06050605068164908401B
:100A30005060106C20F003001064506840F4803166
:100A4000106C41F4681151601064106840F08070BF
:100A5000106010688001FCD5506820F003005060E1
:100A6000506840F0030050605068C0F381000328D4
:100A7000FAD100BDFFE7064904480860F9E7000025
:100A80000010024000200240FFFFC0F700093D00B7
:100A900000000020012080F31388BFF34F8F05482A
:100AA0000168054A01F4E06111430160BFF34F8F13
:100AB00000BFFDE70CED00E00400FA057047000000
:100AC000244810B5016841F4700101602248416A70
:100AD00041F0040141624168204A114041600168CF
:100AE0001F4A11400160016821F4802101604168C2
:100AF0001C4A114041600021C1624FF46052026300
:100B00004163016418498160C16941F08051C1614C
:100B100016480068400508D51548016821F00071A5
:100B20000160016841F0007101601248016841F004
:100B3000900101600168C90503D5016821F40071C5
:100B40000160FFF749FF03494FF0006080390860FA
:100B500010BD000088ED00E00010024000C0FFF86A
:100B6000FFFFF6FEFFFF00070080BF04007000409B
:100B70002018004000200240FEE702E008C8121FD3
:100B800008C1002AFAD170477047002001E001C176
:100B9000121F002AFBD1704710B5C043064B07E077
:100BA00011F8014B4440E4B253F8244084EA102089
:100BB000521EF5D2C04310BDC01000084FF40061B2
:100BC000014800F03BB8000000B801082DE9F047EB
:100BD00000260F46814635464FF4006810E07C1B26
:100BE000444500D9444609EB05002246074900F078
:100BF00047F8224605493046FFF7CEFF0646254412
:100C0000BD42ECD33046BDE8F0870000280000204C
:100C100010B50024FFF73AFB062800D00124204637
:100C200010BDFFF773BB10B50024FFF777FB062854
:100C300000D00324204610BDFFF794BB2DE9F041FE
:100C400006460E4A0027084490420CD2CD0A4805B9
:100C500000D06D1CFFF786FB002408E006EBC420E3
:100C6000FFF7D6FF10B10120BDE8F081641CAC4253
:100C7000F4D3FFF74BFB3846F6E70000000002080C
:100C800030B5094D00248318AB4201D3022030BD9A
:100C9000002304E010F8015B01F8015B5B1C934248
:100CA000F8D3204630BD0000000002082DE9FC5FAB
:100CB00000F1080405460020ADF80000019001AAEB
:100CC0006946284600F06EF818B14FF0FF30BDE8D5
:100CD000FC9F002108460C35019A05E008CD01EB88
:100CE0001341091D89B2401C9042F7D3BDF80000A2
:100CF000884202D06FF00100E9E740CC002504EB08
:100D0000860A2AE002CC88B2090C8846012828D03D
:100D1000022802D06FF00300D9E708464FEA98078F
:100D200000F098F9834642465146FFF72FFAD9461C
:100D300009E04846FFF734FB002802DA6FF00400B0
:100D4000C5E709F104097F1EF3D200BF28F00301B3
:100D50008A44584600F072F86D1CB542D2D3002088
:100D6000B5E708461421B8FBF1F700F073F98346A4
:100D700042465146FFF70AFAD94609E04846FFF7CE
:100D80008DFC002802DA6FF00500A0E709F11409D4
:100D90007F1EF3D2DAE710B50024FFF771FF20467B
:100DA00010BD0000FEB50446002015460E4600901A
:100DB00001900C2702903A4621461948FFF7EBFFB5
:100DC0003A4621466846FFF7E1F99DF800004F28B2
:100DD00002D04FF0FF30FEBDBDF8022040F2F470AB
:100DE000824202D36FF00100FEBD0D4804F10C01F8
:100DF0000C460C30FFF7CFFF2146BDF80220002043
:100E0000FFF7CAFE0199884202D06FF00200FEBDD2
:100E1000BDF802003080029828600020FEBD00006E
:100E200000C00108002206E00021491C89B26429A3
:100E3000FBD3521C92B28242F6D3704710B5002801
:100E400021D0114B0022001F196803E0814203D812
:100E50000A4649680029F9D152B11368841A9C42A4
:100E600004D1006818441060104602E0506000E0B1
:100E7000186039B102680B1A934203D10B681A4407
:100E800002604968416010BD2000002010B5016873
:100E9000074A1140B1F1005F09D14168054C21605A
:100EA0000068FFF75DF92068BDE81040004710BDFD
:100EB0000000FE2F1C0000202DE9F04FADF5077D4E
:100EC00080A8FFF7DBFCFFF7C1F9012827D04FF41A
:100ED000007B59466846FFF772F96846FFF7E6FE61
:100EE000DFF84CA1DFF84C915349DAF80000C9F85B
:100EF0001400884277D151484D460368C9F8043040
:100F00004268C9F808208168C9F81010C068C9F89B
:100F10000C00480504D0012000EBD12001E0FEE7E1
:100F2000C80A2870C0B219285BD84548834258D1F6
:100F30004448824255D1414880308046FFF746FE02
:100F4000E96881424DD100243F4EA94629E00020A6
:100F500001465F4608EB010202EBC422091D12683C
:100F600046F82020401CB842F4D3FFF765FE37480E
:100F700000EBC420FFF74CFEBB46344F0025A80011
:100F800000EBC420384456F82510FFF74CFE6D1CCA
:100F90005D45F4D3FFF745FE0220FFF743FF641CD5
:100FA000E4B299F800008442D1D31E20FFF73AFF43
:100FB0004C462648D9F81010FFF708FEE168814238
:100FC00002D0FFF767FD0EE0FFF736FE54465046AD
:100FD000FFF71EFE1E492046FFF725FEFFF721FE04
:100FE00001E0FFF7EBFD194CDAF800001849241D69
:100FF000C9F81400884209D1206800F07F40B0F1A0
:10100000006F08D1201FFFF741FF04E00A49884222
:1010100001D1FFF73FFD20680821B1EB106F02D12D
:101020000A48FFF733FF0DF5077D0020BDE8F08F7C
:1010300000B80108040000202B2B1A1A00F0000849
:1010400021726152563130302800002000280008FB
:101050004D4D3C3CF0B50B30154D20F00701002400
:10106000144A0FE003688B420BD38B4205D95E1AFA
:1010700043184768C3E9006700E04368136002C093
:1010800004E0021D10680028ECD12046002802D19F
:10109000286808B10020F0BD064A07481060074ADA
:1010A000121A22F00702C0E9002401202860D7E7C5
:1010B00024000020200000202C080020280B002005
:1010C00000000000963007772C610EEEBA510999A6
:1010D00019C46D078FF46A7035A563E9A395649E02
:1010E0003288DB0EA4B8DC791EE9D5E088D9D29726
:1010F0002B4CB609BD7CB17E072DB8E7911DBF9082
:101100006410B71DF220B06A4871B9F3DE41BE84A5
:101110007DD4DA1AEBE4DD6D51B5D4F4C785D38301
:1011200056986C13C0A86B647AF962FDECC9658AA5
:101130004F5C0114D96C0663633D0FFAF50D088D01
:10114000C8206E3B5E10694CE44160D5727167A2A5
:10115000D1E4033C47D4044BFD850DD26BB50AA501
:10116000FAA8B5356C98B242D6C9BBDB40F9BCAC25
:10117000E36CD832755CDF45CF0DD6DC593DD1AB81
:10118000AC30D9263A00DE518051D7C81661D0BFA5
:10119000B5F4B42123C4B3569995BACF0FA5BDB801
:1011A0009EB802280888055FB2D90CC624E90BB1A5
:1011B000877C6F2F114C6858AB1D61C13D2D66B601
:1011C0009041DC760671DB01BC20D2982A10D5EF65
:1011D0008985B1711FB5B606A5E4BF9F33D4B8E8C1
:1011E000A2C9077834F9000F8EA8099618980EE165
:1011F000BB0D6A7F2D3D6D08976C6491015C63E6C1
:10120000F4516B6B62616C1CD83065854E0062F2E4
:10121000ED95066C7BA5011BC1F4088257C40FF540
:10122000C6D9B06550E9B712EAB8BE8B7C88B9FC64
:10123000DF1DDD62492DDA15F37CD38C654CD4FBC0
:101240005861B24DCE51B53A7400BCA3E230BBD464
:1012500041A5DF4AD795D83D6DC4D1A4FBF4D6D3C0
:101260006AE96943FCD96E34468867ADD0B860DA64
:10127000732D0444E51D03335F4C0AAAC97C0DDDC0
:101280003C710550AA41022710100BBE86200CC9E4
:1012900025B56857B3856F2009D466B99FE461CE40
:1012A0000EF9DE5E98C9D9292298D0B0B4A8D7C764
:1012B000173DB359810DB42E3B5CBDB7AD6CBAC0C0
:1012C0002083B8EDB6B3BF9A0CE2B6039AD2B174DC
:1012D0003947D5EAAF77D29D1526DB048316DC7338
:1012E000120B63E3843B64943E6A6D0DA85A6A7ADC
:1012F0000BCF0EE49DFF099327AE000AB19E077D38
:1013000044930FF0D2A3088768F2011EFEC206695B
:101310005D5762F7CB67658071366C19E7066B6EB7
:10132000761BD4FEE02BD3895A7ADA10CC4ADD67DB
:101330006FDFB9F9F9EFBE8E43BEB717D58EB06037
:10134000E8A3D6D67E93D1A1C4C2D83852F2DF4FDB
:10135000F167BBD16757BCA6DD06B53F4B36B24837
:10136000DA2B0DD84C1B0AAFF64A0336607A0441DB
:10137000C3EF60DF55DF67A8EF8E6E3179BE694637
:101380008CB361CB1A8366BCA0D26F2536E268525B
:1013900095770CCC03470BBBB91602222F260555B7
:1013A000BE3BBAC5280BBDB2925AB42B046AB35CDB
:1013B000A7FFD7C231CFD0B58B9ED92C1DAEDE5B37
:1013C000B0C2649B26F263EC9CA36A750A936D021B
:1013D000A906099C3F360EEB856707721357000577
:1013E000824ABF95147AB8E2AE2BB17B381BB60C9B
:1013F0009B8ED2920DBED5E5B7EFDC7C21DFDB0BF7
:10140000D4D2D38642E2D4F1F8B3DD686E83DA1F1A
:10141000CD16BE815B26B9F6E177B06F7747B71876
:10142000E65A0888706A0FFFCA3B06665C0B01111A
:10143000FF9E658F69AE62F8D3FF6B6145CF6C1676
:1014400078E20AA0EED20DD75483044EC2B303391A
:10145000612667A7F71660D04D476949DB776E3E76
:101460004A6AD1AEDC5AD6D9660BDF40F03BD8379A
:1014700053AEBCA9C59EBBDE7FCFB247E9FFB530F6
:101480001CF2BDBD8AC2BACA3093B353A6A3B4241A
:101490000536D0BA9306D7CD2957DE54BF67D92376
:1014A0002E7A66B3B84A61C4021B685D942B6F2A1A
:1014B00037BE0BB4A18E0CC31BDF055A8DEF022D76
:1014C00000000000010203040102030406070809EA
:1014D00001020406080A0C102020202020202020D1
:1014E000010002000400060008000A000C001000C1
:1014F0002000400080000001000100010001000107
:10150000A0860100400D0300801A060000350C0083
:1015100040420F0080841E0000093D003C15000879
:1015200000000020280000007A0B00086415000865
:1015300028000020002000008A0B00080090D00343
:10154000000000000000000000000000000000009B
:10155000000000000000000000000000000000008B
:041560000000000087
:0400000508000149A5
:00000001FF
